:020000040000FA
:1000000087018601880183168030860000308800D1
:10001000003087008312861F0B28861B0D280030B6
:10002000A0000030A1000030A5003F30880087000C
:1000300086005420A00A20083420880054201A2862
:10004000A0013F308800A10A2108402087005420E9
:100050001A283F3087003F308800A50A250848202D
:1000600086005420A1011A2882073F3406345B34ED
:100070004F3466346D347D3407347F346734202840
:1000800082073F3406345B344F3466346D3429289C
:1000900082073F3406345B344F3466346D347D342C
:1000A00007347F3467340F280730A4006430A3007E
:1000B0006430A200A20B5A28A30B5828A40B562880
:0200C000080036
:00000001FF
