:020000040000FA
:100000008701860188018316FF3086000030880052
:10001000003087008312061C0B2806180D280030BC
:10002000A0000030A1003F30880087003E20A00AD9
:100030002008262088003E201728A0013F30880095
:10004000A10A2108322087003E20172882073F346A
:1000500006345B344F3466346D347D3407347F347A
:1000600067341D2882073F3406345B344F346634CE
:100070006D347D3407347F3467340F280730A40093
:100080006430A3006430A200A20B4428A30B4228D2
:06009000A40B402808004B
:00000001FF
